:100000000C9486000C94A7000C94A7000C94A700F5
:100010000C94A7000C94A7000C94A7000C94A700C4
:100020000C94A7000C94A7000C94A7000C94A700B4
:100030000C94A7000C94A7000C94A7000C94A700A4
:100040000C94A7000C94A7000C94A7000C94A70094
:100050000C94A7000C948F010C94A7000C94CE0173
:100060000C94A7000C94A7000C94A7000C94A70074
:100070000C94A7000C94A7000C94A7000C94A70064
:100080000C94A7000C94A7000C94A7000C94A70054
:100090000C94A7000C94A7000C94A7000C94A70044
:1000A0000C94A7000C94A7000C94A7000C94A70034
:1000B0000C94A7000C94A7000C94A7000C94A70024
:1000C0000C94A7000C94A7000C94A7000C94A70014
:1000D0000C94A7000C94A7000C94A7000C94A70004
:1000E0000C94A7000C94BC000C94B5000C94260250
:1000F0000C94B6000C94B4000C94B2000C94A900BB
:100100000C94C2000C94CE000C94B30011241FBEBA
:10011000CFEFD1E2DEBFCDBF00E00CBF12E0A0E028
:10012000B2E0EEE5FFE000E00BBF02C007900D92E9
:10013000AE3CB107D9F722E0AEECB2E001C01D92AF
:10014000A63EB207E1F70E9448040C94AD070C9458
:1001500000009091C00095FFFCCF8093C60080E026
:1001600090E00895089508950895089565E070E079
:100170008CE192E00C94390463E070E080E392E05B
:100180000C9439042091D6023091D70249E050E016
:1001900061E070E08AE492E00C94B8042091D60209
:1001A0003091D7024AE050E061E070E084E592E0EF
:1001B0000E94B8042FEF83ED90E3215080409040DF
:1001C000E1F700C0000008958EE092E09093E30212
:1001D0008093E20280E092E09093D7028093D6026F
:1001E00080E18093C4001092C50088E18093C10033
:1001F00086E08093C20081B18F7C81B982B1806337
:1002000082B981B1836081B98FEF87B90E9468029A
:100210000E94D70384B5826884BD85B5846085BD9E
:1002200087B5896F87BDEEE6F0E0808182608083CC
:100230007894089580E18093C4001092C50088E10D
:100240008093C10086E08093C200089581B18F7CC5
:1002500081B982B1806382B981B1836081B98FEF46
:1002600087B90895089580917C00807E80937C00FA
:1002700080917B00877F80937B0080917A008064EF
:1002800080937A0080917A0086FDFCCF80917C007B
:10029000807E80937C0080917B00877F80937B00B1
:1002A0002091780030917900A8E8B3E10E94890498
:1002B0002AE095958795779567952A95D1F7CB0193
:1002C000089584B5826884BD85B5846085BD87B591
:1002D000896F87BDEEE6F0E08081826080830895BB
:1002E00085B5846085BDEEE6F0E080818160808325
:1002F000089580B190E080959095829581700895E1
:1003000080B190E08095909585FB882780F90895CD
:1003100088B982B193708C7F982B92B908951F92FF
:100320000F920FB60F9211242F933F934F935F9329
:100330006F937F938F939F93AF932091CE023091D1
:10034000CF024091D0025091D1026091D2027091BF
:10035000D3028091D4029091D502A1E00E9498042A
:100360002093CE023093CF024093D0025093D1021B
:100370006093D2027093D3028093D4029093D502FB
:10038000AF919F918F917F916F915F914F913F912D
:100390002F910F900FBE0F901F9018951F920F92E4
:1003A0000FB60F9211240F900FBE0F901F9018954B
:1003B00080FF21C0A59A81FF21C0739A909102010C
:1003C00082FF21C098609093020183FD21C080913B
:1003D00002018F7E809302018091020180648093EC
:1003E000020185E08A95F1F70000809102018F7B80
:1003F000809302010895A59881FDDFCF73989091B5
:10040000020182FDDFCF977F9093020183FFDFCF50
:1004100080910201806180930201DECFCF93DF9350
:10042000EC019595879595958795959587959595E3
:1004300087950E94D801CE018F7099270E94D8011C
:1004400080E98A95F1F7DF91CF910895CF93C82F76
:100450008091D802882321F1CA3099F1809102015C
:100460008F7D8093020181E090E00E940E028FE375
:100470009FE10197F1F700C000001092D80280912F
:100480000201CD3099F08062809302018C2F992770
:1004900087FD90950E940E0280E090E0CF91089534
:1004A000CA3079F080910201CD3069F78F7D809359
:1004B000020180EC90E00E940E0280E090E0CF917B
:1004C000089581E08093D80280E090E0CF91089574
:1004D000E1E0F1E0808180648083808180628083BC
:1004E0009D9A6B9A808188608083808180618083FF
:1004F000E2E0F1E080818F7B80832FEF80E792E064
:10050000215080409040E1F700C0000080818F7D45
:10051000808383E090E00E94D80120E92A95F1F7DA
:100520008FE19EE40197F1F700C00000E2E0F1E006
:1005300080818F7D808383E090E00E94D80190E9E4
:100540009A95F1F78FE891E00197F1F700C000006C
:10055000E2E0F1E080818F7D808383E090E00E9483
:10056000D80190E99A95F1F78FE19EE40197F1F7B0
:1005700000C00000E2E0F1E080818F7D808382E0B6
:1005800090E00E94D80190E99A95F1F7E2E0F1E05D
:1005900080818F7D808382E090E00E94D80120E9F5
:1005A0002A95F1F7E2E0F1E080818F7D808388E099
:1005B00090E00E94D80180E98A95F1F78FEE90E0F3
:1005C0000197F1F700C00000E2E0F1E080818F7D4B
:1005D00080838CE090E00E940E028FEE90E0019705
:1005E000F1F700C00000E2E0F1E080818F7D8083C0
:1005F00081E090E00E940E028FED9EE20197F1F7FC
:1006000000C00000E2E0F1E080818F7D808386E021
:1006100090E00E940E028FE99FE00197F1F700C081
:10062000000008950F931F93CF93DF93EC018B018C
:10063000809102018F7D8093020182E090E00E9410
:100640000E022297A9F0E8012197101611065CF41A
:10065000809102018F7D8093020184E190E00E94ED
:100660000E022197A8F7DF91CF911F910F91089566
:10067000085D1F4FE8CFEF92FF920F931F93CF9328
:10068000DF938B01EC017B0181E0E81AF1081C1675
:100690001D06D4F4809102018F7D8093020188E1D0
:1006A00090E00E940E029701101611064CF48FE99B
:1006B0009FE00197F1F700C0000021503109B8F721
:1006C00021971C161D0634F3DF91CF911F910F91D6
:1006D000FF90EF9008958436910518F484E090E03F
:1006E00008958C3221E0920718F483E090E0089599
:1006F000823C21E0920718F482E090E008958C3B60
:1007000022E0920730F08438934030F085E090E0AA
:10071000089581E090E0089580E090E00895909140
:10072000D90291110BC090917A00906490937A0055
:1007300091E09093D90202C0882311F190917A0040
:1007400096FDFACF1092D9028091780090917900AD
:100750008436910518F484E090E008958C3221E00D
:10076000920788F0823C21E0920780F08C3B22E0E7
:10077000920778F08438934078F480E090E0089510
:1007800086E090E0089583E090E0089582E090E0B4
:10079000089581E090E0089585E090E008958CE36D
:1007A00092E09093E3028093E2020C946802ECE7FB
:1007B000F0E0808180648083EBE7F0E080818064FA
:1007C0008083EAE7F0E08081876C80830895813040
:1007D000B1F18230A9F48091DC029091DD02880FA2
:1007E000991F880F991FA091DE02B091DF02A80F18
:1007F000B91F1296ED91FC911397309779F01995E6
:100800008091DC029091DD02880F991F880F991F5B
:10081000A091DE02B091DF02A80FB91F11968C9152
:1008200011978F938C918F9389EC92E09F938F9384
:100830000E94FA040F900F900F900F9008958091EE
:10084000DC029091DD0201966091DA027091DB0288
:100850000E9475049093DD028093DC02880F991F3B
:10086000880F991FA091DE02B091DF02A80FB91F77
:10087000D5CF9093DF028093DE027093DB0260930A
:10088000DA021092DD021092DC0280E00C94E703A1
:100890000E94E40063E070E080E392E00E9439048B
:1008A0002FEF87EE93E0215080409040E1F700C0A9
:1008B000000020B180B130E02095309525FB9927CC
:1008C00090F9C92F20E0D22FCC0FDD1F90E080954A
:1008D000909584FB002700F910E0C02BD12B2097C6
:1008E000F9F28C2F0E94E703DBCF97FB072E16F45B
:1008F000009407D077FD09D00E94A40407FC05D01E
:100900003EF4909581959F4F0895709561957F4F26
:100910000895A29FB001B39FC001A39F700D811DD8
:100920001124911DB29F700D811D1124911D0895F8
:100930000024A7FD00942A0F301D401D501D601D8E
:10094000701D801D901D0895AA1BBB1B51E107C09F
:10095000AA1FBB1FA617B70710F0A61BB70B881F4F
:10096000991F5A95A9F780959095BC01CD010895DE
:100970008F929F92AF92BF92CF92DF92EF92FF92AF
:100980000F931F93CF93DF936B014A017901D90134
:1009900013962C9121FF1DC0C0E0D0E0C815D905E9
:1009A000D9F08C015C01AC0CBD1CC8010A151B05FB
:1009B00071F00F5F1F4FD7011896ED91FC911997B9
:1009C000B701DC018C911995892B79F305C021962B
:1009D000E5CF80E090E001C0CE01DF91CF911F9183
:1009E0000F91FF90EF90DF90CF90BF90AF909F90CE
:1009F0008F900895CF93DF93CDB7DEB7FE01369683
:100A000061917191AF018091E2029091E3020E94A5
:100A10000C05DF91CF9108952F923F924F925F92F4
:100A20006F927F928F929F92AF92BF92CF92DF92FE
:100A3000EF92FF920F931F93CF93DF93CDB7DEB763
:100A40002C970FB6F894DEBF0FBECDBF7C016B01B3
:100A50008A01FC0117821682838181FFBDC1CE010C
:100A600001964C01F7019381F60193FD859193FF67
:100A700081916F01882309F4ABC1853239F493FD6C
:100A8000859193FF81916F01853229F4B70190E040
:100A90000E941D07E7CF512C312C20E02032A0F41A
:100AA0008B3269F030F4803259F0833269F420617E
:100AB0002CC08D3239F0803339F4216026C0226099
:100AC000246023C0286021C027FD27C030ED380FE7
:100AD0003A3078F426FF06C0FAE05F9E300D11240C
:100AE000532E13C08AE0389E300D1124332E20621D
:100AF0000CC08E3221F426FD6BC1206406C08C36FA
:100B000011F4206802C0883641F4F60193FD859106
:100B100093FF81916F018111C1CF982F9F7D9554D3
:100B2000933028F40C5F1F4FFFE3F9830DC0833629
:100B300031F0833771F0833509F05BC022C0F801D2
:100B4000808189830E5F1F4F44244394512C5401AC
:100B500015C03801F2E06F0E711CF801A080B18061
:100B600026FF03C0652D70E002C06FEF7FEFC50167
:100B70002C870E9412072C0183012C852F77222EAF
:100B800017C03801F2E06F0E711CF801A080B1802F
:100B900026FF03C0652D70E002C06FEF7FEFC50137
:100BA0002C870E9407072C012C852068222E8301A8
:100BB00023FC1BC0832D90E048165906B0F4B70102
:100BC00080E290E00E941D073A94F4CFF50127FCE3
:100BD000859127FE81915F01B70190E00E941D077A
:100BE00031103A94F1E04F1A51084114510471F751
:100BF000E5C0843611F0893639F5F80127FF07C0C2
:100C000060817181828193810C5F1F4F08C0608178
:100C10007181882777FD8095982F0E5F1F4F2F7663
:100C2000B22E97FF09C090958095709561957F4F82
:100C30008F4F9F4F2068B22E2AE030E0A4010E941F
:100C40004F07A82EA81844C0853729F42F7EB22E4E
:100C50002AE030E025C0F22FF97FBF2E8F36C1F099
:100C600018F4883579F0B4C0803719F0883721F04E
:100C7000AFC02F2F2061B22EB4FE0DC08B2D84602B
:100C8000B82E09C024FF0AC09F2F9660B92E06C057
:100C900028E030E005C020E130E002C020E132E091
:100CA000F801B7FE07C060817181828193810C5F7A
:100CB0001F4F06C06081718180E090E00E5F1F4F82
:100CC000A4010E944F07A82EA818FB2DFF77BF2E66
:100CD000B6FE0BC02B2D2E7FA51450F4B4FE0AC017
:100CE000B2FC08C02B2D2E7E05C07A2C2B2D03C004
:100CF0007A2C01C0752C24FF0DC0FE01EA0DF11DF8
:100D00008081803311F4297E09C022FF06C07394CC
:100D1000739404C0822F867809F0739423FD13C066
:100D200020FF06C05A2C731418F4530C5718732C58
:100D3000731468F4B70180E290E02C870E941D07CD
:100D400073942C85F5CF731410F4371801C0312C2F
:100D500024FF12C0B70180E390E02C870E941D079A
:100D60002C8522FF17C021FF03C088E590E002C058
:100D700088E790E0B7010CC0822F867859F021FDFA
:100D800002C080E201C08BE227FD8DE2B70190E056
:100D90000E941D07A51438F4B70180E390E00E947B
:100DA0001D075A94F7CFAA94F401EA0DF11D808132
:100DB000B70190E00E941D07A110F5CF332009F480
:100DC00051CEB70180E290E00E941D073A94F6CF21
:100DD000F7018681978102C08FEF9FEF2C960FB6A7
:100DE000F894DEBF0FBECDBFDF91CF911F910F9161
:100DF000FF90EF90DF90CF90BF90AF909F908F903B
:100E00007F906F905F904F903F902F900895FC01DE
:100E10000590615070400110D8F7809590958E0F25
:100E20009F1F0895FC016150704001900110D8F798
:100E3000809590958E0F9F1F08950F931F93CF93CA
:100E4000DF93182F092FEB018B8181FD03C08FEFFA
:100E50009FEF20C082FF10C04E815F812C813D81B9
:100E6000421753077CF4E881F9819F012F5F3F4FC0
:100E700039832883108306C0E885F985812F199569
:100E8000892B29F72E813F812F5F3F4F3F832E8390
:100E9000812F902FDF91CF911F910F910895FA012B
:100EA000AA27283051F1203181F1E8946F936E7FA9
:100EB0006E5F7F4F8F4F9F4FAF4FB1E03ED0B4E09A
:100EC0003CD0670F781F891F9A1FA11D680F791FDB
:100ED0008A1F911DA11D6A0F711D811D911DA11DEC
:100EE00020D009F468943F912AE0269F11243019FC
:100EF000305D3193DEF6CF010895462F4770405D97
:100F00004193B3E00FD0C9F7F6CF462F4F70405D45
:100F10004A3318F0495D31FD4052419302D0A9F7A0
:100F2000EACFB4E0A6959795879577956795BA959A
:100F3000C9F700976105710508959B01AC010A2E60
:100F400006945795479537952795BA95C9F7620F37
:0E0F5000731F841F951FA01D0895F894FFCFF6
:100F5E000000000200000000A900000000000000D8
:100F6E000002000000002602000000005F02B30035
:100F7E006A02B4007602B5008102CE009002BC0077
:100F8E00A102C200AB02B200BA02B600000000021B
:100F9E00000000002602000000004D465F4265651D
:100FAE00700D0A000A4C45442069732034320073D8
:100FBE006574204C4544206F6E00736574204C455B
:100FCE0044206F666600746F67676C65204C4544FD
:100FDE000044697370204C45442076616C75650041
:100FEE004261636B20746F204D61696E6D656E7525
:100FFE00004265657020302E357300436F756E7438
:10100E00206F6E20504F525443005375626D656EC3
:0E101E0075204C45442E2E2E000A257300002E
:00000001FF
